{
	"VerifierPublicInput.sol": {
		"PairingTest": {
			"abi": [
				{
					"inputs": [
						{
							"internalType": "bytes",
							"name": "input",
							"type": "bytes"
						}
					],
					"name": "run",
					"outputs": [
						{
							"internalType": "bool",
							"name": "",
							"type": "bool"
						}
					],
					"stateMutability": "view",
					"type": "function"
				},
				{
					"inputs": [],
					"name": "verify",
					"outputs": [
						{
							"internalType": "bool",
							"name": "",
							"type": "bool"
						}
					],
					"stateMutability": "view",
					"type": "function"
				}
			],
			"devdoc": {
				"kind": "dev",
				"methods": {},
				"version": 1
			},
			"evm": {
				"assembly": "    /* \"VerifierPublicInput.sol\":64:3855  contract PairingTest {... */\n  mstore(0x40, 0x80)\n  callvalue\n  dup1\n  iszero\n  tag_1\n  jumpi\n  0x00\n  dup1\n  revert\ntag_1:\n  pop\n  dataSize(sub_0)\n  dup1\n  dataOffset(sub_0)\n  0x00\n  codecopy\n  0x00\n  return\nstop\n\nsub_0: assembly {\n        /* \"VerifierPublicInput.sol\":64:3855  contract PairingTest {... */\n      mstore(0x40, 0x80)\n      callvalue\n      dup1\n      iszero\n      tag_1\n      jumpi\n      0x00\n      dup1\n      revert\n    tag_1:\n      pop\n      jumpi(tag_2, lt(calldatasize, 0x04))\n      shr(0xe0, calldataload(0x00))\n      dup1\n      0x3a276523\n      eq\n      tag_3\n      jumpi\n      dup1\n      0xfc735e99\n      eq\n      tag_4\n      jumpi\n    tag_2:\n      0x00\n      dup1\n      revert\n        /* \"VerifierPublicInput.sol\":2607:3046  function run(bytes memory input) public view returns (bool) {... */\n    tag_3:\n      tag_5\n      tag_6\n      calldatasize\n      0x04\n      tag_7\n      jump\t// in\n    tag_6:\n      tag_8\n      jump\t// in\n    tag_5:\n      mload(0x40)\n        /* \"#utility.yul\":1237:1251   */\n      swap1\n      iszero\n        /* \"#utility.yul\":1230:1252   */\n      iszero\n        /* \"#utility.yul\":1212:1253   */\n      dup2\n      mstore\n        /* \"#utility.yul\":1200:1202   */\n      0x20\n        /* \"#utility.yul\":1185:1203   */\n      add\n        /* \"VerifierPublicInput.sol\":2607:3046  function run(bytes memory input) public view returns (bool) {... */\n      mload(0x40)\n      dup1\n      swap2\n      sub\n      swap1\n      return\n        /* \"VerifierPublicInput.sol\":3052:3853  function verify() public view returns (bool) {... */\n    tag_4:\n      tag_5\n      tag_12\n      jump\t// in\n        /* \"VerifierPublicInput.sol\":2607:3046  function run(bytes memory input) public view returns (bool) {... */\n    tag_8:\n        /* \"VerifierPublicInput.sol\":2661:2665  bool */\n      0x00\n        /* \"VerifierPublicInput.sol\":2825:2828  192 */\n      0xc0\n        /* \"VerifierPublicInput.sol\":2810:2815  input */\n      dup3\n        /* \"VerifierPublicInput.sol\":2810:2822  input.length */\n      mload\n        /* \"VerifierPublicInput.sol\":2810:2828  input.length % 192 */\n      tag_15\n      swap2\n      swap1\n      tag_16\n      jump\t// in\n    tag_15:\n        /* \"VerifierPublicInput.sol\":2810:2833  input.length % 192 != 0 */\n      iszero\n        /* \"VerifierPublicInput.sol\":2806:2875  if (input.length % 192 != 0) revert(\"Points must be a multiple of 6\") */\n      tag_17\n      jumpi\n        /* \"VerifierPublicInput.sol\":2835:2875  revert(\"Points must be a multiple of 6\") */\n      mload(0x40)\n      shl(0xe5, 0x461bcd)\n      dup2\n      mstore\n        /* \"#utility.yul\":1680:1682   */\n      0x20\n        /* \"VerifierPublicInput.sol\":2835:2875  revert(\"Points must be a multiple of 6\") */\n      0x04\n      dup3\n      add\n        /* \"#utility.yul\":1662:1683   */\n      mstore\n        /* \"#utility.yul\":1719:1721   */\n      0x1e\n        /* \"#utility.yul\":1699:1717   */\n      0x24\n      dup3\n      add\n        /* \"#utility.yul\":1692:1722   */\n      mstore\n        /* \"#utility.yul\":1758:1790   */\n      0x506f696e7473206d7573742062652061206d756c7469706c65206f6620360000\n        /* \"#utility.yul\":1738:1756   */\n      0x44\n      dup3\n      add\n        /* \"#utility.yul\":1731:1791   */\n      mstore\n        /* \"#utility.yul\":1808:1826   */\n      0x64\n      add\n        /* \"VerifierPublicInput.sol\":2835:2875  revert(\"Points must be a multiple of 6\") */\n    tag_18:\n      mload(0x40)\n      dup1\n      swap2\n      sub\n      swap1\n      revert\n        /* \"VerifierPublicInput.sol\":2806:2875  if (input.length % 192 != 0) revert(\"Points must be a multiple of 6\") */\n    tag_17:\n        /* \"VerifierPublicInput.sol\":2886:2898  bool success */\n      0x00\n        /* \"VerifierPublicInput.sol\":2900:2917  bytes memory data */\n      dup1\n        /* \"VerifierPublicInput.sol\":2929:2933  0x08 */\n      0x08\n      sub(shl(0xa0, 0x01), 0x01)\n        /* \"VerifierPublicInput.sol\":2921:2945  address(0x08).staticcall */\n      and\n        /* \"VerifierPublicInput.sol\":2946:2951  input */\n      dup5\n        /* \"VerifierPublicInput.sol\":2921:2952  address(0x08).staticcall(input) */\n      mload(0x40)\n      tag_20\n      swap2\n      swap1\n      tag_21\n      jump\t// in\n    tag_20:\n      0x00\n      mload(0x40)\n      dup1\n      dup4\n      sub\n      dup2\n      dup6\n      gas\n      staticcall\n      swap2\n      pop\n      pop\n      returndatasize\n      dup1\n      0x00\n      dup2\n      eq\n      tag_24\n      jumpi\n      mload(0x40)\n      swap2\n      pop\n      and(add(returndatasize, 0x3f), not(0x1f))\n      dup3\n      add\n      0x40\n      mstore\n      returndatasize\n      dup3\n      mstore\n      returndatasize\n      0x00\n      0x20\n      dup5\n      add\n      returndatacopy\n      jump(tag_23)\n    tag_24:\n      0x60\n      swap2\n      pop\n    tag_23:\n      pop\n        /* \"VerifierPublicInput.sol\":2885:2952  (bool success, bytes memory data) = address(0x08).staticcall(input) */\n      swap2\n      pop\n      swap2\n      pop\n        /* \"VerifierPublicInput.sol\":2966:2973  success */\n      dup2\n        /* \"VerifierPublicInput.sol\":2962:3006  if (success) return abi.decode(data, (bool)) */\n      iszero\n      tag_25\n      jumpi\n        /* \"VerifierPublicInput.sol\":2993:2997  data */\n      dup1\n        /* \"VerifierPublicInput.sol\":2982:3006  abi.decode(data, (bool)) */\n      dup1\n      0x20\n      add\n      swap1\n      mload\n      dup2\n      add\n      swap1\n      tag_26\n      swap2\n      swap1\n      tag_27\n      jump\t// in\n    tag_26:\n        /* \"VerifierPublicInput.sol\":2975:3006  return abi.decode(data, (bool)) */\n      swap5\n        /* \"VerifierPublicInput.sol\":2607:3046  function run(bytes memory input) public view returns (bool) {... */\n      swap4\n      pop\n      pop\n      pop\n      pop\n      jump\t// out\n        /* \"VerifierPublicInput.sol\":2962:3006  if (success) return abi.decode(data, (bool)) */\n    tag_25:\n        /* \"VerifierPublicInput.sol\":3016:3039  revert(\"Wrong pairing\") */\n      mload(0x40)\n      shl(0xe5, 0x461bcd)\n      dup2\n      mstore\n        /* \"#utility.yul\":2842:2844   */\n      0x20\n        /* \"VerifierPublicInput.sol\":3016:3039  revert(\"Wrong pairing\") */\n      0x04\n      dup3\n      add\n        /* \"#utility.yul\":2824:2845   */\n      mstore\n        /* \"#utility.yul\":2881:2883   */\n      0x0d\n        /* \"#utility.yul\":2861:2879   */\n      0x24\n      dup3\n      add\n        /* \"#utility.yul\":2854:2884   */\n      mstore\n      shl(0x98, 0x57726f6e672070616972696e67)\n        /* \"#utility.yul\":2900:2918   */\n      0x44\n      dup3\n      add\n        /* \"#utility.yul\":2893:2936   */\n      mstore\n        /* \"#utility.yul\":2953:2971   */\n      0x64\n      add\n        /* \"VerifierPublicInput.sol\":3016:3039  revert(\"Wrong pairing\") */\n      tag_18\n        /* \"#utility.yul\":2640:2977   */\n      jump\n        /* \"VerifierPublicInput.sol\":3052:3853  function verify() public view returns (bool) {... */\n    tag_12:\n        /* \"VerifierPublicInput.sol\":3091:3095  bool */\n      0x00\n        /* \"VerifierPublicInput.sol\":3149:3169  bytes memory points1 */\n      dup1\n        /* \"VerifierPublicInput.sol\":134:210  1386024683863798223806715768494499062004541323940181712423964207525793364711 */\n      0x03107650d2ec8b8a25da6b6ec86223c556c05b3a08cea53ee947b06710e7fae7\n        /* \"VerifierPublicInput.sol\":249:326  21888102028181201026520927748650667146060315771644791066010745818423154284449 */\n      0x30643a0ab2b2719b1bdd365414b5576f1953c0db4d12d67dd6d8dff0493597a1\n        /* \"VerifierPublicInput.sol\":492:568  5460202898618824449851004635208915161845252587893842541197344609059159079041 */\n      0x0c125d85c16dd78508eb6299a9f50876403fafba6b6e6e4facb7f9d5e7a2f881\n        /* \"VerifierPublicInput.sol\":376:452  2268131489099612700799057509317325492629365410973939712610009952960246451283 */\n      0x0503b788b3095324b88649a664e2f6ae6ec1b5d64c0c9b1ef82a906a003c0c53\n        /* \"VerifierPublicInput.sol\":725:802  20956792494964230503385709419527449681227575755609196682056154158621712303733 */\n      0x2e551fcc35c36c017240b0368a623130acd49d4392d1f0face4c1cb6be59c675\n        /* \"VerifierPublicInput.sol\":608:685  21214978237453897862935673366579439999311734514850735211426933843714547507738 */\n      0x2ee7408da69034418d9dfe600a6de0d845c8bfb55c42bc9fcd2f74603a9de21a\n        /* \"VerifierPublicInput.sol\":859:935  1368015179489954701390400359078579693043519447331113978918064868415326638035 */\n      0x030644e72e131a029b85045b68181585d97816a916871ca8d3c208c16d87cfd3\n        /* \"VerifierPublicInput.sol\":978:1054  9918110051302171585080402603319702774565515993150576347155970296011118125764 */\n      0x15ed738c0e0a7c92e7845f96b2ae9c0a68a6a449e3538fc7ff3ebf7a5a18a2c4\n        /* \"VerifierPublicInput.sol\":1229:1305  7273165102799931111715871471550377909735733521218303035754523677688038059653 */\n      0x1014772f57bb9742735191cd5dcfe4ebbc04156b6878a0a7c9824f32ffb66e85\n        /* \"VerifierPublicInput.sol\":1110:1186  2725019753478801796453339367788033689375851816420509565303521482350756874229 */\n      0x06064e784db10e9051e52826e192715e8d7e478cb09a5e0012defa0694fbc7f5\n        /* \"VerifierPublicInput.sol\":1467:1542  957874124722006818841961785324909313781880061366718538693995380805373202866 */\n      0x021e2335f3354bb7922ffcc2f38d3323dd9453ac49b55441452aeaca147711b2\n        /* \"VerifierPublicInput.sol\":1348:1424  2512659008974376214222774206987427162027254181373325676825515531566330959255 */\n      0x058e1d5681b5b9e0074b0f9c8d2c68a069b920d74521e79765036d57666c5597\n        /* \"VerifierPublicInput.sol\":3172:3448  abi.encode(... */\n      add(0x20, mload(0x40))\n      tag_31\n      swap13\n      swap12\n      swap11\n      swap10\n      swap9\n      swap8\n      swap7\n      swap6\n      swap5\n      swap4\n      swap3\n      swap2\n      swap1\n      tag_32\n      jump\t// in\n    tag_31:\n      mload(0x40)\n      0x20\n      dup2\n      dup4\n      sub\n      sub\n      dup2\n      mstore\n      swap1\n      0x40\n      mstore\n        /* \"VerifierPublicInput.sol\":3149:3448  bytes memory points1 = abi.encode(... */\n      swap1\n      pop\n        /* \"VerifierPublicInput.sol\":3459:3479  bytes memory points2 */\n      0x00\n        /* \"VerifierPublicInput.sol\":1591:1667  3007959184562619447308758040351540166633693812660366965459472595743782653474 */\n      0x06a671cf157ea83fc4b6b0d94526f85b0102b7aa6c08a1c43f1501b7d5f2ce22\n        /* \"VerifierPublicInput.sol\":1706:1783  21613286137401577200129067304160980059729655631955179340440670659782625352184 */\n      0x2fc8afbac63013cfea1100959e39e620d6a59d54a8f1b92c8255357f07e659f8\n        /* \"VerifierPublicInput.sol\":2180:2257  11559732032986387107991004021392285783925812861821192530917403151452391805634 */\n      0x198e9393920d483a7260bfb731fb5d25f1aa493335a9e71297e485b7aef312c2\n        /* \"VerifierPublicInput.sol\":2064:2141  10857046999023057135944570762232829481370756359578518086990519993285655852781 */\n      0x1800deef121f1e76426a00665e5c4479674322d4f75edadd46debd5cd992f6ed\n        /* \"VerifierPublicInput.sol\":2411:2487  4082367875863433681332203403145435568316851327593401208105741076214120093531 */\n      0x090689d0585ff075ec9e99ad690c3395bc4b313370b38ef355acdadcd122975b\n        /* \"VerifierPublicInput.sol\":2296:2372  8495653923123431417604973247489272438418190587263600148770280649306958101930 */\n      0x12c85ea5db8c6deb4aab71808dcb408fe3d1e7690c43d37b4ce6cc0166fa7daa\n        /* \"VerifierPublicInput.sol\":1832:1908  2285801182806610770657419494535950855770340693072843615122889807967969315919 */\n      0x050db7b610ad94bac17b2852113a271ae3d709428cea00442a2567432c278c4f\n        /* \"VerifierPublicInput.sol\":1947:2024  18123511326312116315687556134605188595130818916602058636606420458000478513163 */\n      0x28118b3cd60aae56ac967c09caa7163db2532eaf138fdc58739e87ff3fb6280b\n        /* \"VerifierPublicInput.sol\":2180:2257  11559732032986387107991004021392285783925812861821192530917403151452391805634 */\n      0x198e9393920d483a7260bfb731fb5d25f1aa493335a9e71297e485b7aef312c2\n        /* \"VerifierPublicInput.sol\":2064:2141  10857046999023057135944570762232829481370756359578518086990519993285655852781 */\n      0x1800deef121f1e76426a00665e5c4479674322d4f75edadd46debd5cd992f6ed\n        /* \"VerifierPublicInput.sol\":2411:2487  4082367875863433681332203403145435568316851327593401208105741076214120093531 */\n      0x090689d0585ff075ec9e99ad690c3395bc4b313370b38ef355acdadcd122975b\n        /* \"VerifierPublicInput.sol\":2296:2372  8495653923123431417604973247489272438418190587263600148770280649306958101930 */\n      0x12c85ea5db8c6deb4aab71808dcb408fe3d1e7690c43d37b4ce6cc0166fa7daa\n        /* \"VerifierPublicInput.sol\":3482:3730  abi.encode(... */\n      add(0x20, mload(0x40))\n      tag_33\n      swap13\n      swap12\n      swap11\n      swap10\n      swap9\n      swap8\n      swap7\n      swap6\n      swap5\n      swap4\n      swap3\n      swap2\n      swap1\n      tag_32\n      jump\t// in\n    tag_33:\n      mload(0x40)\n      0x20\n      dup2\n      dup4\n      sub\n      sub\n      dup2\n      mstore\n      swap1\n      0x40\n      mstore\n        /* \"VerifierPublicInput.sol\":3459:3730  bytes memory points2 = abi.encode(... */\n      swap1\n      pop\n        /* \"VerifierPublicInput.sol\":3741:3760  bytes memory points */\n      0x00\n        /* \"VerifierPublicInput.sol\":3780:3787  points1 */\n      dup3\n        /* \"VerifierPublicInput.sol\":3789:3796  points2 */\n      dup3\n        /* \"VerifierPublicInput.sol\":3763:3797  abi.encodePacked(points1, points2) */\n      add(0x20, mload(0x40))\n      tag_34\n      swap3\n      swap2\n      swap1\n      tag_35\n      jump\t// in\n    tag_34:\n      mload(0x40)\n      0x20\n      dup2\n      dup4\n      sub\n      sub\n      dup2\n      mstore\n      swap1\n      0x40\n      mstore\n        /* \"VerifierPublicInput.sol\":3741:3797  bytes memory points = abi.encodePacked(points1, points2) */\n      swap1\n      pop\n        /* \"VerifierPublicInput.sol\":3808:3814  bool x */\n      0x00\n        /* \"VerifierPublicInput.sol\":3817:3828  run(points) */\n      tag_36\n        /* \"VerifierPublicInput.sol\":3821:3827  points */\n      dup3\n        /* \"VerifierPublicInput.sol\":3817:3820  run */\n      tag_8\n        /* \"VerifierPublicInput.sol\":3817:3828  run(points) */\n      jump\t// in\n    tag_36:\n        /* \"VerifierPublicInput.sol\":3808:3828  bool x = run(points) */\n      swap6\n        /* \"VerifierPublicInput.sol\":3052:3853  function verify() public view returns (bool) {... */\n      swap5\n      pop\n      pop\n      pop\n      pop\n      pop\n      jump\t// out\n        /* \"#utility.yul\":14:141   */\n    tag_37:\n        /* \"#utility.yul\":75:85   */\n      0x4e487b71\n        /* \"#utility.yul\":70:73   */\n      0xe0\n        /* \"#utility.yul\":66:86   */\n      shl\n        /* \"#utility.yul\":63:64   */\n      0x00\n        /* \"#utility.yul\":56:87   */\n      mstore\n        /* \"#utility.yul\":106:110   */\n      0x41\n        /* \"#utility.yul\":103:104   */\n      0x04\n        /* \"#utility.yul\":96:111   */\n      mstore\n        /* \"#utility.yul\":130:134   */\n      0x24\n        /* \"#utility.yul\":127:128   */\n      0x00\n        /* \"#utility.yul\":120:135   */\n      revert\n        /* \"#utility.yul\":146:1067   */\n    tag_7:\n        /* \"#utility.yul\":214:220   */\n      0x00\n        /* \"#utility.yul\":267:269   */\n      0x20\n        /* \"#utility.yul\":255:264   */\n      dup3\n        /* \"#utility.yul\":246:253   */\n      dup5\n        /* \"#utility.yul\":242:265   */\n      sub\n        /* \"#utility.yul\":238:270   */\n      slt\n        /* \"#utility.yul\":235:287   */\n      iszero\n      tag_42\n      jumpi\n        /* \"#utility.yul\":283:284   */\n      0x00\n        /* \"#utility.yul\":280:281   */\n      dup1\n        /* \"#utility.yul\":273:285   */\n      revert\n        /* \"#utility.yul\":235:287   */\n    tag_42:\n        /* \"#utility.yul\":323:332   */\n      dup2\n        /* \"#utility.yul\":310:333   */\n      calldataload\n        /* \"#utility.yul\":352:370   */\n      0xffffffffffffffff\n        /* \"#utility.yul\":393:395   */\n      dup1\n        /* \"#utility.yul\":385:391   */\n      dup3\n        /* \"#utility.yul\":382:396   */\n      gt\n        /* \"#utility.yul\":379:413   */\n      iszero\n      tag_43\n      jumpi\n        /* \"#utility.yul\":409:410   */\n      0x00\n        /* \"#utility.yul\":406:407   */\n      dup1\n        /* \"#utility.yul\":399:411   */\n      revert\n        /* \"#utility.yul\":379:413   */\n    tag_43:\n        /* \"#utility.yul\":447:453   */\n      dup2\n        /* \"#utility.yul\":436:445   */\n      dup5\n        /* \"#utility.yul\":432:454   */\n      add\n        /* \"#utility.yul\":422:454   */\n      swap2\n      pop\n        /* \"#utility.yul\":492:499   */\n      dup5\n        /* \"#utility.yul\":485:489   */\n      0x1f\n        /* \"#utility.yul\":481:483   */\n      dup4\n        /* \"#utility.yul\":477:490   */\n      add\n        /* \"#utility.yul\":473:500   */\n      slt\n        /* \"#utility.yul\":463:518   */\n      tag_44\n      jumpi\n        /* \"#utility.yul\":514:515   */\n      0x00\n        /* \"#utility.yul\":511:512   */\n      dup1\n        /* \"#utility.yul\":504:516   */\n      revert\n        /* \"#utility.yul\":463:518   */\n    tag_44:\n        /* \"#utility.yul\":550:552   */\n      dup2\n        /* \"#utility.yul\":537:553   */\n      calldataload\n        /* \"#utility.yul\":572:574   */\n      dup2\n        /* \"#utility.yul\":568:570   */\n      dup2\n        /* \"#utility.yul\":565:575   */\n      gt\n        /* \"#utility.yul\":562:598   */\n      iszero\n      tag_46\n      jumpi\n        /* \"#utility.yul\":578:596   */\n      tag_46\n      tag_37\n      jump\t// in\n    tag_46:\n        /* \"#utility.yul\":653:655   */\n      0x40\n        /* \"#utility.yul\":647:656   */\n      mload\n        /* \"#utility.yul\":621:623   */\n      0x1f\n        /* \"#utility.yul\":707:720   */\n      dup3\n      add\n      not(0x1f)\n        /* \"#utility.yul\":703:725   */\n      swap1\n      dup2\n      and\n        /* \"#utility.yul\":727:729   */\n      0x3f\n        /* \"#utility.yul\":699:730   */\n      add\n        /* \"#utility.yul\":695:735   */\n      and\n        /* \"#utility.yul\":683:736   */\n      dup2\n      add\n      swap1\n        /* \"#utility.yul\":751:769   */\n      dup4\n      dup3\n      gt\n        /* \"#utility.yul\":771:793   */\n      dup2\n      dup4\n      lt\n        /* \"#utility.yul\":748:794   */\n      or\n        /* \"#utility.yul\":745:817   */\n      iszero\n      tag_48\n      jumpi\n        /* \"#utility.yul\":797:815   */\n      tag_48\n      tag_37\n      jump\t// in\n    tag_48:\n        /* \"#utility.yul\":837:847   */\n      dup2\n        /* \"#utility.yul\":833:835   */\n      0x40\n        /* \"#utility.yul\":826:848   */\n      mstore\n        /* \"#utility.yul\":872:874   */\n      dup3\n        /* \"#utility.yul\":864:870   */\n      dup2\n        /* \"#utility.yul\":857:875   */\n      mstore\n        /* \"#utility.yul\":912:919   */\n      dup8\n        /* \"#utility.yul\":907:909   */\n      0x20\n        /* \"#utility.yul\":902:904   */\n      dup5\n        /* \"#utility.yul\":898:900   */\n      dup8\n        /* \"#utility.yul\":894:905   */\n      add\n        /* \"#utility.yul\":890:910   */\n      add\n        /* \"#utility.yul\":887:920   */\n      gt\n        /* \"#utility.yul\":884:937   */\n      iszero\n      tag_49\n      jumpi\n        /* \"#utility.yul\":933:934   */\n      0x00\n        /* \"#utility.yul\":930:931   */\n      dup1\n        /* \"#utility.yul\":923:935   */\n      revert\n        /* \"#utility.yul\":884:937   */\n    tag_49:\n        /* \"#utility.yul\":989:991   */\n      dup3\n        /* \"#utility.yul\":984:986   */\n      0x20\n        /* \"#utility.yul\":980:982   */\n      dup7\n        /* \"#utility.yul\":976:987   */\n      add\n        /* \"#utility.yul\":971:973   */\n      0x20\n        /* \"#utility.yul\":963:969   */\n      dup4\n        /* \"#utility.yul\":959:974   */\n      add\n        /* \"#utility.yul\":946:992   */\n      calldatacopy\n        /* \"#utility.yul\":1034:1035   */\n      0x00\n        /* \"#utility.yul\":1012:1027   */\n      swap3\n      dup2\n      add\n        /* \"#utility.yul\":1029:1031   */\n      0x20\n        /* \"#utility.yul\":1008:1032   */\n      add\n        /* \"#utility.yul\":1001:1036   */\n      swap3\n      swap1\n      swap3\n      mstore\n      pop\n        /* \"#utility.yul\":1016:1022   */\n      swap6\n        /* \"#utility.yul\":146:1067   */\n      swap5\n      pop\n      pop\n      pop\n      pop\n      pop\n      jump\t// out\n        /* \"#utility.yul\":1264:1473   */\n    tag_16:\n        /* \"#utility.yul\":1296:1297   */\n      0x00\n        /* \"#utility.yul\":1322:1323   */\n      dup3\n        /* \"#utility.yul\":1312:1444   */\n      tag_52\n      jumpi\n        /* \"#utility.yul\":1366:1376   */\n      0x4e487b71\n        /* \"#utility.yul\":1361:1364   */\n      0xe0\n        /* \"#utility.yul\":1357:1377   */\n      shl\n        /* \"#utility.yul\":1354:1355   */\n      0x00\n        /* \"#utility.yul\":1347:1378   */\n      mstore\n        /* \"#utility.yul\":1401:1405   */\n      0x12\n        /* \"#utility.yul\":1398:1399   */\n      0x04\n        /* \"#utility.yul\":1391:1406   */\n      mstore\n        /* \"#utility.yul\":1429:1433   */\n      0x24\n        /* \"#utility.yul\":1426:1427   */\n      0x00\n        /* \"#utility.yul\":1419:1434   */\n      revert\n        /* \"#utility.yul\":1312:1444   */\n    tag_52:\n      pop\n        /* \"#utility.yul\":1458:1467   */\n      mod\n      swap1\n        /* \"#utility.yul\":1264:1473   */\n      jump\t// out\n        /* \"#utility.yul\":1837:2159   */\n    tag_38:\n        /* \"#utility.yul\":1878:1881   */\n      0x00\n        /* \"#utility.yul\":1916:1921   */\n      dup2\n        /* \"#utility.yul\":1910:1922   */\n      mload\n        /* \"#utility.yul\":1940:1941   */\n      0x00\n        /* \"#utility.yul\":1950:2078   */\n    tag_55:\n        /* \"#utility.yul\":1964:1970   */\n      dup2\n        /* \"#utility.yul\":1961:1962   */\n      dup2\n        /* \"#utility.yul\":1958:1971   */\n      lt\n        /* \"#utility.yul\":1950:2078   */\n      iszero\n      tag_57\n      jumpi\n        /* \"#utility.yul\":2061:2065   */\n      0x20\n        /* \"#utility.yul\":2046:2059   */\n      dup2\n      dup6\n      add\n        /* \"#utility.yul\":2042:2066   */\n      dup2\n      add\n        /* \"#utility.yul\":2036:2067   */\n      mload\n        /* \"#utility.yul\":2023:2034   */\n      dup7\n      dup4\n      add\n        /* \"#utility.yul\":2016:2068   */\n      mstore\n        /* \"#utility.yul\":1979:1991   */\n      add\n        /* \"#utility.yul\":1950:2078   */\n      jump(tag_55)\n    tag_57:\n      pop\n        /* \"#utility.yul\":2133:2134   */\n      0x00\n        /* \"#utility.yul\":2097:2113   */\n      swap4\n      add\n        /* \"#utility.yul\":2122:2135   */\n      swap3\n      dup4\n      mstore\n      pop\n        /* \"#utility.yul\":2097:2113   */\n      swap1\n      swap2\n        /* \"#utility.yul\":1837:2159   */\n      swap1\n      pop\n      jump\t// out\n        /* \"#utility.yul\":2164:2353   */\n    tag_21:\n        /* \"#utility.yul\":2293:2296   */\n      0x00\n        /* \"#utility.yul\":2318:2347   */\n      tag_59\n        /* \"#utility.yul\":2343:2346   */\n      dup3\n        /* \"#utility.yul\":2335:2341   */\n      dup5\n        /* \"#utility.yul\":2318:2347   */\n      tag_38\n      jump\t// in\n    tag_59:\n        /* \"#utility.yul\":2311:2347   */\n      swap4\n        /* \"#utility.yul\":2164:2353   */\n      swap3\n      pop\n      pop\n      pop\n      jump\t// out\n        /* \"#utility.yul\":2358:2635   */\n    tag_27:\n        /* \"#utility.yul\":2425:2431   */\n      0x00\n        /* \"#utility.yul\":2478:2480   */\n      0x20\n        /* \"#utility.yul\":2466:2475   */\n      dup3\n        /* \"#utility.yul\":2457:2464   */\n      dup5\n        /* \"#utility.yul\":2453:2476   */\n      sub\n        /* \"#utility.yul\":2449:2481   */\n      slt\n        /* \"#utility.yul\":2446:2498   */\n      iszero\n      tag_61\n      jumpi\n        /* \"#utility.yul\":2494:2495   */\n      0x00\n        /* \"#utility.yul\":2491:2492   */\n      dup1\n        /* \"#utility.yul\":2484:2496   */\n      revert\n        /* \"#utility.yul\":2446:2498   */\n    tag_61:\n        /* \"#utility.yul\":2526:2535   */\n      dup2\n        /* \"#utility.yul\":2520:2536   */\n      mload\n        /* \"#utility.yul\":2579:2584   */\n      dup1\n        /* \"#utility.yul\":2572:2585   */\n      iszero\n        /* \"#utility.yul\":2565:2586   */\n      iszero\n        /* \"#utility.yul\":2558:2563   */\n      dup2\n        /* \"#utility.yul\":2555:2587   */\n      eq\n        /* \"#utility.yul\":2545:2605   */\n      tag_59\n      jumpi\n        /* \"#utility.yul\":2601:2602   */\n      0x00\n        /* \"#utility.yul\":2598:2599   */\n      dup1\n        /* \"#utility.yul\":2591:2603   */\n      revert\n        /* \"#utility.yul\":2982:3953   */\n    tag_32:\n        /* \"#utility.yul\":3439:3464   */\n      swap12\n      dup13\n      mstore\n        /* \"#utility.yul\":3495:3497   */\n      0x20\n        /* \"#utility.yul\":3480:3498   */\n      dup13\n      add\n        /* \"#utility.yul\":3473:3507   */\n      swap11\n      swap1\n      swap11\n      mstore\n        /* \"#utility.yul\":3538:3540   */\n      0x40\n        /* \"#utility.yul\":3523:3541   */\n      dup12\n      add\n        /* \"#utility.yul\":3516:3550   */\n      swap9\n      swap1\n      swap9\n      mstore\n        /* \"#utility.yul\":3581:3583   */\n      0x60\n        /* \"#utility.yul\":3566:3584   */\n      dup11\n      add\n        /* \"#utility.yul\":3559:3593   */\n      swap7\n      swap1\n      swap7\n      mstore\n        /* \"#utility.yul\":3624:3627   */\n      0x80\n        /* \"#utility.yul\":3609:3628   */\n      dup10\n      add\n        /* \"#utility.yul\":3602:3637   */\n      swap5\n      swap1\n      swap5\n      mstore\n        /* \"#utility.yul\":3668:3671   */\n      0xa0\n        /* \"#utility.yul\":3653:3672   */\n      dup9\n      add\n        /* \"#utility.yul\":3646:3681   */\n      swap3\n      swap1\n      swap3\n      mstore\n        /* \"#utility.yul\":3712:3715   */\n      0xc0\n        /* \"#utility.yul\":3697:3716   */\n      dup8\n      add\n        /* \"#utility.yul\":3690:3725   */\n      mstore\n        /* \"#utility.yul\":3756:3759   */\n      0xe0\n        /* \"#utility.yul\":3741:3760   */\n      dup7\n      add\n        /* \"#utility.yul\":3734:3769   */\n      mstore\n        /* \"#utility.yul\":3800:3803   */\n      0x0100\n        /* \"#utility.yul\":3785:3804   */\n      dup6\n      add\n        /* \"#utility.yul\":3778:3813   */\n      mstore\n        /* \"#utility.yul\":3844:3847   */\n      0x0120\n        /* \"#utility.yul\":3829:3848   */\n      dup5\n      add\n        /* \"#utility.yul\":3822:3857   */\n      mstore\n        /* \"#utility.yul\":3888:3891   */\n      0x0140\n        /* \"#utility.yul\":3873:3892   */\n      dup4\n      add\n        /* \"#utility.yul\":3866:3902   */\n      mstore\n        /* \"#utility.yul\":3933:3936   */\n      0x0160\n        /* \"#utility.yul\":3918:3937   */\n      dup3\n      add\n        /* \"#utility.yul\":3911:3947   */\n      mstore\n        /* \"#utility.yul\":3426:3429   */\n      0x0180\n        /* \"#utility.yul\":3411:3430   */\n      add\n      swap1\n        /* \"#utility.yul\":2982:3953   */\n      jump\t// out\n        /* \"#utility.yul\":3958:4219   */\n    tag_35:\n        /* \"#utility.yul\":4133:4136   */\n      0x00\n        /* \"#utility.yul\":4158:4213   */\n      tag_26\n        /* \"#utility.yul\":4183:4212   */\n      tag_67\n        /* \"#utility.yul\":4208:4211   */\n      dup4\n        /* \"#utility.yul\":4200:4206   */\n      dup7\n        /* \"#utility.yul\":4183:4212   */\n      tag_38\n      jump\t// in\n    tag_67:\n        /* \"#utility.yul\":4175:4181   */\n      dup5\n        /* \"#utility.yul\":4158:4213   */\n      tag_38\n      jump\t// in\n\n    auxdata: 0xa2646970667358221220ad255ecd08be1d0df998665808b41710485a848f73db36e543b0cad6d8d35f6064736f6c63430008120033\n}\n",
				"bytecode": {
					"linkReferences": {},
					"object": "608060405234801561001057600080fd5b50610723806100206000396000f3fe608060405234801561001057600080fd5b50600436106100365760003560e01c80633a2765231461003b578063fc735e9914610062575b600080fd5b61004e61004936600461054c565b61006a565b604051901515815260200160405180910390f35b61004e610187565b600060c0825161007a91906105fd565b156100cc5760405162461bcd60e51b815260206004820152601e60248201527f506f696e7473206d7573742062652061206d756c7469706c65206f662036000060448201526064015b60405180910390fd5b60008060086001600160a01b0316846040516100e8919061064f565b600060405180830381855afa9150503d8060008114610123576040519150601f19603f3d011682016040523d82523d6000602084013e610128565b606091505b5091509150811561014f57808060200190518101906101479190610662565b949350505050565b60405162461bcd60e51b815260206004820152600d60248201526c57726f6e672070616972696e6760981b60448201526064016100c3565b6000807f03107650d2ec8b8a25da6b6ec86223c556c05b3a08cea53ee947b06710e7fae77f30643a0ab2b2719b1bdd365414b5576f1953c0db4d12d67dd6d8dff0493597a17f0c125d85c16dd78508eb6299a9f50876403fafba6b6e6e4facb7f9d5e7a2f8817f0503b788b3095324b88649a664e2f6ae6ec1b5d64c0c9b1ef82a906a003c0c537f2e551fcc35c36c017240b0368a623130acd49d4392d1f0face4c1cb6be59c6757f2ee7408da69034418d9dfe600a6de0d845c8bfb55c42bc9fcd2f74603a9de21a7f030644e72e131a029b85045b68181585d97816a916871ca8d3c208c16d87cfd37f15ed738c0e0a7c92e7845f96b2ae9c0a68a6a449e3538fc7ff3ebf7a5a18a2c47f1014772f57bb9742735191cd5dcfe4ebbc04156b6878a0a7c9824f32ffb66e857f06064e784db10e9051e52826e192715e8d7e478cb09a5e0012defa0694fbc7f57f021e2335f3354bb7922ffcc2f38d3323dd9453ac49b55441452aeaca147711b27f058e1d5681b5b9e0074b0f9c8d2c68a069b920d74521e79765036d57666c55976040516020016103319c9b9a99989796959493929190610684565b604051602081830303815290604052905060007f06a671cf157ea83fc4b6b0d94526f85b0102b7aa6c08a1c43f1501b7d5f2ce227f2fc8afbac63013cfea1100959e39e620d6a59d54a8f1b92c8255357f07e659f87f198e9393920d483a7260bfb731fb5d25f1aa493335a9e71297e485b7aef312c27f1800deef121f1e76426a00665e5c4479674322d4f75edadd46debd5cd992f6ed7f090689d0585ff075ec9e99ad690c3395bc4b313370b38ef355acdadcd122975b7f12c85ea5db8c6deb4aab71808dcb408fe3d1e7690c43d37b4ce6cc0166fa7daa7f050db7b610ad94bac17b2852113a271ae3d709428cea00442a2567432c278c4f7f28118b3cd60aae56ac967c09caa7163db2532eaf138fdc58739e87ff3fb6280b7f198e9393920d483a7260bfb731fb5d25f1aa493335a9e71297e485b7aef312c27f1800deef121f1e76426a00665e5c4479674322d4f75edadd46debd5cd992f6ed7f090689d0585ff075ec9e99ad690c3395bc4b313370b38ef355acdadcd122975b7f12c85ea5db8c6deb4aab71808dcb408fe3d1e7690c43d37b4ce6cc0166fa7daa6040516020016104eb9c9b9a99989796959493929190610684565b6040516020818303038152906040529050600082826040516020016105119291906106d8565b6040516020818303038152906040529050600061052d8261006a565b95945050505050565b634e487b7160e01b600052604160045260246000fd5b60006020828403121561055e57600080fd5b813567ffffffffffffffff8082111561057657600080fd5b818401915084601f83011261058a57600080fd5b81358181111561059c5761059c610536565b604051601f8201601f19908116603f011681019083821181831017156105c4576105c4610536565b816040528281528760208487010111156105dd57600080fd5b826020860160208301376000928101602001929092525095945050505050565b60008261061a57634e487b7160e01b600052601260045260246000fd5b500690565b6000815160005b818110156106405760208185018101518683015201610626565b50600093019283525090919050565b600061065b828461061f565b9392505050565b60006020828403121561067457600080fd5b8151801515811461065b57600080fd5b9b8c5260208c019a909a5260408b019890985260608a0196909652608089019490945260a088019290925260c087015260e08601526101008501526101208401526101408301526101608201526101800190565b60006101476106e7838661061f565b8461061f56fea2646970667358221220ad255ecd08be1d0df998665808b41710485a848f73db36e543b0cad6d8d35f6064736f6c63430008120033",
					"opcodes": "PUSH1 0x80 PUSH1 0x40 MSTORE CALLVALUE DUP1 ISZERO PUSH2 0x10 JUMPI PUSH1 0x0 DUP1 REVERT JUMPDEST POP PUSH2 0x723 DUP1 PUSH2 0x20 PUSH1 0x0 CODECOPY PUSH1 0x0 RETURN INVALID PUSH1 0x80 PUSH1 0x40 MSTORE CALLVALUE DUP1 ISZERO PUSH2 0x10 JUMPI PUSH1 0x0 DUP1 REVERT JUMPDEST POP PUSH1 0x4 CALLDATASIZE LT PUSH2 0x36 JUMPI PUSH1 0x0 CALLDATALOAD PUSH1 0xE0 SHR DUP1 PUSH4 0x3A276523 EQ PUSH2 0x3B JUMPI DUP1 PUSH4 0xFC735E99 EQ PUSH2 0x62 JUMPI JUMPDEST PUSH1 0x0 DUP1 REVERT JUMPDEST PUSH2 0x4E PUSH2 0x49 CALLDATASIZE PUSH1 0x4 PUSH2 0x54C JUMP JUMPDEST PUSH2 0x6A JUMP JUMPDEST PUSH1 0x40 MLOAD SWAP1 ISZERO ISZERO DUP2 MSTORE PUSH1 0x20 ADD PUSH1 0x40 MLOAD DUP1 SWAP2 SUB SWAP1 RETURN JUMPDEST PUSH2 0x4E PUSH2 0x187 JUMP JUMPDEST PUSH1 0x0 PUSH1 0xC0 DUP3 MLOAD PUSH2 0x7A SWAP2 SWAP1 PUSH2 0x5FD JUMP JUMPDEST ISZERO PUSH2 0xCC JUMPI PUSH1 0x40 MLOAD PUSH3 0x461BCD PUSH1 0xE5 SHL DUP2 MSTORE PUSH1 0x20 PUSH1 0x4 DUP3 ADD MSTORE PUSH1 0x1E PUSH1 0x24 DUP3 ADD MSTORE PUSH32 0x506F696E7473206D7573742062652061206D756C7469706C65206F6620360000 PUSH1 0x44 DUP3 ADD MSTORE PUSH1 0x64 ADD JUMPDEST PUSH1 0x40 MLOAD DUP1 SWAP2 SUB SWAP1 REVERT JUMPDEST PUSH1 0x0 DUP1 PUSH1 0x8 PUSH1 0x1 PUSH1 0x1 PUSH1 0xA0 SHL SUB AND DUP5 PUSH1 0x40 MLOAD PUSH2 0xE8 SWAP2 SWAP1 PUSH2 0x64F JUMP JUMPDEST PUSH1 0x0 PUSH1 0x40 MLOAD DUP1 DUP4 SUB DUP2 DUP6 GAS STATICCALL SWAP2 POP POP RETURNDATASIZE DUP1 PUSH1 0x0 DUP2 EQ PUSH2 0x123 JUMPI PUSH1 0x40 MLOAD SWAP2 POP PUSH1 0x1F NOT PUSH1 0x3F RETURNDATASIZE ADD AND DUP3 ADD PUSH1 0x40 MSTORE RETURNDATASIZE DUP3 MSTORE RETURNDATASIZE PUSH1 0x0 PUSH1 0x20 DUP5 ADD RETURNDATACOPY PUSH2 0x128 JUMP JUMPDEST PUSH1 0x60 SWAP2 POP JUMPDEST POP SWAP2 POP SWAP2 POP DUP2 ISZERO PUSH2 0x14F JUMPI DUP1 DUP1 PUSH1 0x20 ADD SWAP1 MLOAD DUP2 ADD SWAP1 PUSH2 0x147 SWAP2 SWAP1 PUSH2 0x662 JUMP JUMPDEST SWAP5 SWAP4 POP POP POP POP JUMP JUMPDEST PUSH1 0x40 MLOAD PUSH3 0x461BCD PUSH1 0xE5 SHL DUP2 MSTORE PUSH1 0x20 PUSH1 0x4 DUP3 ADD MSTORE PUSH1 0xD PUSH1 0x24 DUP3 ADD MSTORE PUSH13 0x57726F6E672070616972696E67 PUSH1 0x98 SHL PUSH1 0x44 DUP3 ADD MSTORE PUSH1 0x64 ADD PUSH2 0xC3 JUMP JUMPDEST PUSH1 0x0 DUP1 PUSH32 0x3107650D2EC8B8A25DA6B6EC86223C556C05B3A08CEA53EE947B06710E7FAE7 PUSH32 0x30643A0AB2B2719B1BDD365414B5576F1953C0DB4D12D67DD6D8DFF0493597A1 PUSH32 0xC125D85C16DD78508EB6299A9F50876403FAFBA6B6E6E4FACB7F9D5E7A2F881 PUSH32 0x503B788B3095324B88649A664E2F6AE6EC1B5D64C0C9B1EF82A906A003C0C53 PUSH32 0x2E551FCC35C36C017240B0368A623130ACD49D4392D1F0FACE4C1CB6BE59C675 PUSH32 0x2EE7408DA69034418D9DFE600A6DE0D845C8BFB55C42BC9FCD2F74603A9DE21A PUSH32 0x30644E72E131A029B85045B68181585D97816A916871CA8D3C208C16D87CFD3 PUSH32 0x15ED738C0E0A7C92E7845F96B2AE9C0A68A6A449E3538FC7FF3EBF7A5A18A2C4 PUSH32 0x1014772F57BB9742735191CD5DCFE4EBBC04156B6878A0A7C9824F32FFB66E85 PUSH32 0x6064E784DB10E9051E52826E192715E8D7E478CB09A5E0012DEFA0694FBC7F5 PUSH32 0x21E2335F3354BB7922FFCC2F38D3323DD9453AC49B55441452AEACA147711B2 PUSH32 0x58E1D5681B5B9E0074B0F9C8D2C68A069B920D74521E79765036D57666C5597 PUSH1 0x40 MLOAD PUSH1 0x20 ADD PUSH2 0x331 SWAP13 SWAP12 SWAP11 SWAP10 SWAP9 SWAP8 SWAP7 SWAP6 SWAP5 SWAP4 SWAP3 SWAP2 SWAP1 PUSH2 0x684 JUMP JUMPDEST PUSH1 0x40 MLOAD PUSH1 0x20 DUP2 DUP4 SUB SUB DUP2 MSTORE SWAP1 PUSH1 0x40 MSTORE SWAP1 POP PUSH1 0x0 PUSH32 0x6A671CF157EA83FC4B6B0D94526F85B0102B7AA6C08A1C43F1501B7D5F2CE22 PUSH32 0x2FC8AFBAC63013CFEA1100959E39E620D6A59D54A8F1B92C8255357F07E659F8 PUSH32 0x198E9393920D483A7260BFB731FB5D25F1AA493335A9E71297E485B7AEF312C2 PUSH32 0x1800DEEF121F1E76426A00665E5C4479674322D4F75EDADD46DEBD5CD992F6ED PUSH32 0x90689D0585FF075EC9E99AD690C3395BC4B313370B38EF355ACDADCD122975B PUSH32 0x12C85EA5DB8C6DEB4AAB71808DCB408FE3D1E7690C43D37B4CE6CC0166FA7DAA PUSH32 0x50DB7B610AD94BAC17B2852113A271AE3D709428CEA00442A2567432C278C4F PUSH32 0x28118B3CD60AAE56AC967C09CAA7163DB2532EAF138FDC58739E87FF3FB6280B PUSH32 0x198E9393920D483A7260BFB731FB5D25F1AA493335A9E71297E485B7AEF312C2 PUSH32 0x1800DEEF121F1E76426A00665E5C4479674322D4F75EDADD46DEBD5CD992F6ED PUSH32 0x90689D0585FF075EC9E99AD690C3395BC4B313370B38EF355ACDADCD122975B PUSH32 0x12C85EA5DB8C6DEB4AAB71808DCB408FE3D1E7690C43D37B4CE6CC0166FA7DAA PUSH1 0x40 MLOAD PUSH1 0x20 ADD PUSH2 0x4EB SWAP13 SWAP12 SWAP11 SWAP10 SWAP9 SWAP8 SWAP7 SWAP6 SWAP5 SWAP4 SWAP3 SWAP2 SWAP1 PUSH2 0x684 JUMP JUMPDEST PUSH1 0x40 MLOAD PUSH1 0x20 DUP2 DUP4 SUB SUB DUP2 MSTORE SWAP1 PUSH1 0x40 MSTORE SWAP1 POP PUSH1 0x0 DUP3 DUP3 PUSH1 0x40 MLOAD PUSH1 0x20 ADD PUSH2 0x511 SWAP3 SWAP2 SWAP1 PUSH2 0x6D8 JUMP JUMPDEST PUSH1 0x40 MLOAD PUSH1 0x20 DUP2 DUP4 SUB SUB DUP2 MSTORE SWAP1 PUSH1 0x40 MSTORE SWAP1 POP PUSH1 0x0 PUSH2 0x52D DUP3 PUSH2 0x6A JUMP JUMPDEST SWAP6 SWAP5 POP POP POP POP POP JUMP JUMPDEST PUSH4 0x4E487B71 PUSH1 0xE0 SHL PUSH1 0x0 MSTORE PUSH1 0x41 PUSH1 0x4 MSTORE PUSH1 0x24 PUSH1 0x0 REVERT JUMPDEST PUSH1 0x0 PUSH1 0x20 DUP3 DUP5 SUB SLT ISZERO PUSH2 0x55E JUMPI PUSH1 0x0 DUP1 REVERT JUMPDEST DUP2 CALLDATALOAD PUSH8 0xFFFFFFFFFFFFFFFF DUP1 DUP3 GT ISZERO PUSH2 0x576 JUMPI PUSH1 0x0 DUP1 REVERT JUMPDEST DUP2 DUP5 ADD SWAP2 POP DUP5 PUSH1 0x1F DUP4 ADD SLT PUSH2 0x58A JUMPI PUSH1 0x0 DUP1 REVERT JUMPDEST DUP2 CALLDATALOAD DUP2 DUP2 GT ISZERO PUSH2 0x59C JUMPI PUSH2 0x59C PUSH2 0x536 JUMP JUMPDEST PUSH1 0x40 MLOAD PUSH1 0x1F DUP3 ADD PUSH1 0x1F NOT SWAP1 DUP2 AND PUSH1 0x3F ADD AND DUP2 ADD SWAP1 DUP4 DUP3 GT DUP2 DUP4 LT OR ISZERO PUSH2 0x5C4 JUMPI PUSH2 0x5C4 PUSH2 0x536 JUMP JUMPDEST DUP2 PUSH1 0x40 MSTORE DUP3 DUP2 MSTORE DUP8 PUSH1 0x20 DUP5 DUP8 ADD ADD GT ISZERO PUSH2 0x5DD JUMPI PUSH1 0x0 DUP1 REVERT JUMPDEST DUP3 PUSH1 0x20 DUP7 ADD PUSH1 0x20 DUP4 ADD CALLDATACOPY PUSH1 0x0 SWAP3 DUP2 ADD PUSH1 0x20 ADD SWAP3 SWAP1 SWAP3 MSTORE POP SWAP6 SWAP5 POP POP POP POP POP JUMP JUMPDEST PUSH1 0x0 DUP3 PUSH2 0x61A JUMPI PUSH4 0x4E487B71 PUSH1 0xE0 SHL PUSH1 0x0 MSTORE PUSH1 0x12 PUSH1 0x4 MSTORE PUSH1 0x24 PUSH1 0x0 REVERT JUMPDEST POP MOD SWAP1 JUMP JUMPDEST PUSH1 0x0 DUP2 MLOAD PUSH1 0x0 JUMPDEST DUP2 DUP2 LT ISZERO PUSH2 0x640 JUMPI PUSH1 0x20 DUP2 DUP6 ADD DUP2 ADD MLOAD DUP7 DUP4 ADD MSTORE ADD PUSH2 0x626 JUMP JUMPDEST POP PUSH1 0x0 SWAP4 ADD SWAP3 DUP4 MSTORE POP SWAP1 SWAP2 SWAP1 POP JUMP JUMPDEST PUSH1 0x0 PUSH2 0x65B DUP3 DUP5 PUSH2 0x61F JUMP JUMPDEST SWAP4 SWAP3 POP POP POP JUMP JUMPDEST PUSH1 0x0 PUSH1 0x20 DUP3 DUP5 SUB SLT ISZERO PUSH2 0x674 JUMPI PUSH1 0x0 DUP1 REVERT JUMPDEST DUP2 MLOAD DUP1 ISZERO ISZERO DUP2 EQ PUSH2 0x65B JUMPI PUSH1 0x0 DUP1 REVERT JUMPDEST SWAP12 DUP13 MSTORE PUSH1 0x20 DUP13 ADD SWAP11 SWAP1 SWAP11 MSTORE PUSH1 0x40 DUP12 ADD SWAP9 SWAP1 SWAP9 MSTORE PUSH1 0x60 DUP11 ADD SWAP7 SWAP1 SWAP7 MSTORE PUSH1 0x80 DUP10 ADD SWAP5 SWAP1 SWAP5 MSTORE PUSH1 0xA0 DUP9 ADD SWAP3 SWAP1 SWAP3 MSTORE PUSH1 0xC0 DUP8 ADD MSTORE PUSH1 0xE0 DUP7 ADD MSTORE PUSH2 0x100 DUP6 ADD MSTORE PUSH2 0x120 DUP5 ADD MSTORE PUSH2 0x140 DUP4 ADD MSTORE PUSH2 0x160 DUP3 ADD MSTORE PUSH2 0x180 ADD SWAP1 JUMP JUMPDEST PUSH1 0x0 PUSH2 0x147 PUSH2 0x6E7 DUP4 DUP7 PUSH2 0x61F JUMP JUMPDEST DUP5 PUSH2 0x61F JUMP INVALID LOG2 PUSH5 0x6970667358 0x22 SLT KECCAK256 0xAD 0x25 0x5E 0xCD ADDMOD 0xBE SAR 0xD 0xF9 SWAP9 PUSH7 0x5808B41710485A DUP5 DUP16 PUSH20 0xDB36E543B0CAD6D8D35F6064736F6C6343000812 STOP CALLER "
				},
				"gasEstimates": {
					"creation": {
						"codeDepositCost": "365400",
						"executionCost": "405",
						"totalCost": "365805"
					},
					"external": {
						"run(bytes)": "infinite",
						"verify()": "infinite"
					}
				},
				"methodIdentifiers": {
					"run(bytes)": "3a276523",
					"verify()": "fc735e99"
				}
			},
			"storageLayout": {
				"storage": [],
				"types": null
			},
			"userdoc": {
				"kind": "user",
				"methods": {},
				"version": 1
			}
		}
	}
}